:020000040800F2
:10000000B8060020710100086F0700082F060008DD
:100010006B070008C5050008C108000800000000C3
:10002000000000000000000000000000730700084E
:10003000C9050008000000007107000875070008E6
:100040008B0100088B0100088B0100088B01000860
:100050008B0100088B0100088B0100088B01000850
:10006000000000008B0100088B0100088B010008D4
:100070008B0100088B0100088B01000800000000C4
:10008000610800088B010008000000008B010008D7
:100090008B0100088B0100088B0100088B01000810
:1000A0008B0100088B0100088B0100088B01000800
:1000B00089080008000000000000000000000000A7
:1000C0008B010008000000008B01000800F002F81E
:1000D00000F03FF80AA090E8000C82448344AAF1A3
:1000E0000107DA4501D100F034F8AFF2090EBAE8A1
:1000F0000F0013F0010F18BFFB1A43F0010318475C
:10010000B8230000D8230000103A24BF78C878C173
:10011000FAD8520724BF30C830C144BF04680C600D
:10012000704700000023002400250026103A28BF55
:1001300078C1FBD8520728BF30C148BF0B60704759
:10014000642900F0EF80002070471FB51FBD10B577
:1001500010BD00F0B1F91146FFF7F7FF01F0F2FB17
:1001600000F0CFF903B4FFF7F2FF03BC00F0AAFBE5
:100170000948804709480047FEE7FEE7FEE7FEE73B
:10018000FEE7FEE7FEE7FEE7FEE7FEE70448054977
:10019000054A064B7047000079070008CD000008AB
:1001A000B8000020B8060020B8020020B8020020E5
:1001B0007047704753EA020C00F069802DE9F04B5C
:1001C0004FF00006002B1FBFB3FA83F503FA05F4C6
:1001D00024FA05F65E4012BF1643B2FA82F502FA1F
:1001E00005F4C5F120051EBF22FA05FC44EA0C0403
:1001F000203556EA044C4FEA144418BF641C4FF0F3
:1002000000084FF00009904271EB030C39D300292C
:1002100019BFB1FA81F701FA07F6B0FA80F700FAD0
:1002200007F6C7F120071EBF20FA07FC46EA0C06B6
:100230002037B6FBF4FCA7EB0507103F07F01F0BB8
:10024000CBF120060CFA0BFB2CFA06F644BFB346A2
:100250000026202FA4BF5E464FF0000B5BEA060C81
:1002600008BF4FF0010B19EB0B09ABFB027C48EB0D
:100270000608C01B06FB02CC0BFB03CC71EB0C0188
:10028000C1E70B46024641464846BDE8F08B13B530
:100290004FF000004FF00001AFF30080BDE81C40BC
:1002A000704700000FB4044910B503AA029800F08B
:1002B000D1F810BC5DF814FB080000202DE9F041D6
:1002C0000E460446002020622046E168884730B38D
:1002D000252805D0D4E901219047206A401CF2E787
:1002E000E168204600278847050018D0A5F14100A5
:1002F000192802D820354FF4006732462946204697
:100300002760FFF71DFF40B1012804D0F61D26F03D
:1003100007060836D8E7361DD6E72846DAE7206A0A
:10032000BDE8F0812DE9F0410646002410687529EA
:10033000314616A510D0AFF30080002802DA404203
:1003400013A507E031688A0701D512A502E0490725
:1003500004D511A5012401E0AFF3008000210A2299
:1003600006F1240709E0B0FBF2FCB0FBF2F302FB5C
:100370001C00303078541846491C0028F3D123461D
:100380002A463046BDE8F04100F00BB800000000FE
:100390002D0000002B000000200000007047704777
:1003A00070472DE9F0470D4699469246044600F104
:1003B00024080168880604D5E06921F01001216055
:1003C00000E00120A84201DD471B00E00027A169F1
:1003D0007A1902EB0900081AA0612078C00602D43D
:1003E0002046AFF30080002608E0D4E901211AF886
:1003F00006009047206A401C761C20624E45F4DBC4
:100400002078C0060AD52046AFF3008006E0D4E984
:10041000012130209047206A401C2062381EA7F13D
:100420000107F4DC07E0D4E9012118F80500904742
:10043000206A401C2062281EA5F10105F3DC20463D
:10044000AFF300802078000602D50220BDE8F087D7
:100450000120FBE7074B70B50D467B4400F011F817
:100460000446284600F020F810B14FF0FF3070BD70
:10047000204670BD0F13000001694A1C0261087814
:10048000704700B58FB0CDE90131002105910549D4
:100490007944CDE9031011466846FFF70FFF0FB00E
:1004A00000BD0000E5FFFFFF007B00F0800070470B
:1004B00000487047540000207546FFF7F9FFAE462C
:1004C00005006946534620F00700854618B020B560
:1004D000FFF75CFEBDE820404FF000064FF000073C
:1004E0004FF000084FF0000B21F00701AC46ACE8DC
:1004F000C009ACE8C009ACE8C009ACE8C0098D4649
:10050000704710B50446AFF300802046BDE81040A8
:10051000FFF728BE00BF011EA0F10100FBD170470C
:100520000EB50121234800F0DBFF0121224800F035
:10053000D7FF022000F058FE01A801F02EF9032099
:100540008DF80A000120019000208DF8090001A912
:100550001A4801F02CF9684600F0CCF901208DF81A
:10056000000000208DF801008DF8020001208DF8B8
:1005700003006946124800F0A7F90122072110483C
:1005800000F0B8FA01210E4800F0D9F90C4800F04B
:10059000B8F900BF0A4800F0BAF90128FAD00848B3
:1005A00000F0BEF900BF064800F0C0F90128FAD0FB
:1005B0000EBD0000120014000900180000040048DD
:1005C0000024014000BFFEE77047000010B504465C
:1005D000072301222146094800F0BEF901210748FE
:1005E00000F0A2FA00BF0221044800F0ADF9002893
:1005F000F9D0024800F07AFA10BD00000024014052
:100600002DE9F04107460C460025002608E0384653
:10061000FFF7DCFF05440520FFF77CFF701CC6B226
:10062000A642F4DBB5FBF4F080B2BDE8F08100BF78
:10063000FEE7000070B504460D46164618480078DF
:1006400010B1012828D113E016480068201AA842EA
:100650000CD900BF00220221134801F099F800BF15
:100660001048046001200E49087000E070BD13E0DE
:100670000C480068201AB0420CD900BF01220221A8
:10068000094801F085F800BF0648046000200449CD
:10069000087000E0EAE700BF00BF00BFE6E7000027
:1006A00020000020240000200004004810B504466B
:1006B0000020A047322001F021F80A20A047322074
:1006C00001F01CF80020A047322001F017F80A20A2
:1006D000A047322001F012F80020A047322001F09C
:1006E0000DF80A20A047322001F008F80020A047AA
:1006F000642001F003F80A20A047642000F0FEFF08
:100700000020A047642000F0F9FF0A20A0476420E1
:1007100000F0F4FF0020A047642000F0EFFF0A2063
:10072000A047642000F0EAFF0020A047642000F00A
:10073000E5FF0A20A047322000F0E0FF0020A0479C
:10074000322000F0DBFF0A20A047322000F0D6FF65
:100750000020A047322000F0D1FF0A20A04732201D
:1007600000F0CCFF0020A04710BD00BFFEE770479F
:1007700070477047704700002C48006820F0010067
:10078000401C2A49086000BF28480068C0F34000A8
:100790000028F9D02548406820F00300234948602C
:1007A00000BF22484068C0F381000028F9D11F48EB
:1007B00000681F4908401D4908600020486041F654
:1007C0001070C8624FF4801008634FF41F008860F7
:1007D0000846406940F4C020486116480068164940
:1007E0000840144908600846006814490843114944
:1007F0000860081D006820F48270091D08600D481B
:100800001430006820F482700A49143108600846E8
:10081000006840F0040008600448406920F4C020EB
:1008200002494861C8030649086070470010024049
:10083000FFFFF2FE00040048CFFFFCFF10000100A4
:1008400008ED00E010B50446642C00D910BD224626
:100850000021024801F0C8FB00BFF7E7002C01406F
:1008600010B50121064801F0E5FB40B105480068DC
:10087000401C044908600121014801F0D8FB10BD6B
:10088000000400401400002010B5002420210A4874
:1008900001F057FD70B1084801F046FDC4B200BF39
:1008A0008021064801F04DFD0028F9D0214603487B
:1008B00001F03EFD10BD0000004400400038014042
:1008C00000BFFEE700BF70470B78426863F3082261
:1008D00042604B78826863F3410282608B78826861
:1008E00063F3CB228260CA78521EC36A62F3175345
:1008F000C362704700210170417081700121C17095
:100900007047816821F00801083181607047014615
:100910008868C0F3C00008B1012070470020FCE7E0
:10092000816821F00401091D8160704701468868D3
:10093000C0F3800008B1012070470020FCE7826806
:1009400061F30002826070470246002013680B408A
:1009500003B900E00120704710B5122964D2DFE826
:1009600001F0090E13181D22272C31363B40454A51
:100970004F54595E046963F30204046155E004694D
:1009800063F3C504046150E0046963F388140461EF
:100990004BE0046963F34B24046146E0046963F3AC
:1009A0000E34046141E0046963F3D13404613CE036
:1009B000046963F39444046137E0046963F35754B2
:1009C000046132E0046963F31A6404612DE0046990
:1009D00063F3DD64046128E0C46863F30204C46067
:1009E00023E0C46863F3C504C4601EE0C46863F315
:1009F0008814C46019E0C46863F34B24C46014E035
:100A0000C46863F30E34C4600FE0C46863F3D13488
:100A1000C4600AE0C46863F39444C46005E0C46839
:100A200063F35754C46000E000BF00BF112A5AD2DC
:100A3000DFE802F059090E13181D22272C31363B2E
:100A400040454A4F5400446B61F3040444634BE057
:100A5000446B61F34914446346E0446B61F38E24B4
:100A6000446341E0446B61F3D33444633CE0446B42
:100A700061F31854446337E0446B61F35D6444638D
:100A800032E0046B61F3040404632DE0046B61F352
:100A90004914046328E0046B61F38E24046323E0AB
:100AA000046B61F3D33404631EE0046B61F31854E8
:100AB000046319E0046B61F35D64046314E0C46AC9
:100AC00061F30404C4620FE0C46A61F34914C462B0
:100AD0000AE0C46A61F38E24C46205E0C46A61F36B
:100AE000D334C46200E000BF00BF10BD0146C86C33
:100AF00080B2704707290ADD836823F0007303F191
:100B000000738360836861F35343836007E0836805
:100B100023F000738360836861F3534383608368C9
:100B200062F3145383607047826861F39652826067
:100B30007047000070B504460D4616461DB941F6D3
:100B4000DC60864205DC012D6FD141F6786086427B
:100B50006BDDE4480078082817D2DFE800F00417BE
:100B6000293B4D5F7284E0480068201AB0F5967FFB
:100B700001D8002070BD00BF01220221DB4800F037
:100B800007FE00BF0120D74908707EE0D648006804
:100B9000201A642801D80020ECE700BF00220221BF
:100BA000D24800F0F5FD00BF0220CE4908706CE08D
:100BB000CD480068201A642801D80020DAE700BF79
:100BC00001220221C94800F0E3FD00BF0320C5490E
:100BD00008705AE0C4480068201A642801D8002030
:100BE000C8E700BF00220221C04800F0D1FD00BFCD
:100BF0000420BC49087048E0BB480068201A6428FB
:100C000001D80020B6E700BF01220221B74800F05A
:100C1000BFFD00BF0520B349087036E0B248006848
:100C2000201A642802D80020A4E72FE000BF002289
:100C30000221AE4800F0ACFD00BF0620A9490870B3
:100C400023E0A9480068201A642801D8002091E711
:100C500000BF01220221A54800F09AFD00BF072035
:100C6000A049087011E0A0480068201A642801D843
:100C700000207FE700BF002202219C4800F088FD91
:100C800000BF00209749087000BF26E11DB941F65A
:100C9000E840864204DC012D7FD1B6F5E15F7CDDC2
:100CA00090480078062873D2DFE800F00316283A4F
:100CB0004C5E8D480068201AB0F5967F01D8002060
:100CC00058E700BF01220221884800F061FD00BF03
:100CD0000120844908705FE083480068201A8C284E
:100CE00001D8002046E700BF002202217F4800F023
:100CF0004FFD00BF02207B4908704DE07A48006834
:100D0000201A8C2801D8002034E700BF01220221DC
:100D1000764800F03DFD00BF0320724908703BE0BB
:100D200071480068201A8C2801D8002022E700BFF3
:100D3000002202216D4800F02BFD00BF042069490C
:100D4000087029E068480068201A8C2801D8002023
:100D500010E700BF01220221644800F019FD00BF26
:100D600005206049087017E05F480068201A8C2849
:100D700001D80020FEE600BF002202215B4800F0FF
:100D800007FD00BF00205749087005E005E0FFE7B8
:100D900000205449087000BF9FE01DB941F658304B
:100DA000864205DC012D5BD141F6C810864257DD35
:100DB0004C48007830B1012817D0022827D00328EA
:100DC00049D136E048480068201AB0F5F57F01D8CF
:100DD0000020CFE600BF01220221444800F0D8FCE9
:100DE00000BF01203F49087039E03F480068201AE1
:100DF000AA2801D80020BDE600BF002202213B48FE
:100E000000F0C6FC00BF02203649087027E03648D3
:100E10000068201AAA2801D80020ABE600BF0122F2
:100E20000221324800F0B4FC00BF03202D490870B5
:100E300015E02D480068201AAA2801D8002099E65C
:100E400000BF00220221294800F0A2FC00BF0020C0
:100E50002449087003E000202249087000BF3CE0EC
:100E600015B9B6F5C85F05DC012D34D141F27070BB
:100E7000864230DD1B48007810B1012826D113E0EE
:100E800019480068201A40F2EE21884201D800205B
:100E900070E600BF01220221144800F079FC00BF77
:100EA00001201049087015E00F480068201AFA2840
:100EB00001D800205EE600BF002202210B4800F0AE
:100EC00067FC00BF02200749087003E000200549C5
:100ED000087000BF01E001204CE6034804600020D8
:100EE00048E600002C0000202800002000040048F4
:100EF0001CB501210D4800F0F3FA01210B4800F068
:100F0000EFFA684600F049FC01208DF80700002048
:100F10008DF804008DF806008820009001208DF8DF
:100F200005006946024800F042FC1CBD1200140096
:100F30000004004810B500F022FF00BF012202218A
:100F4000084800F025FC00BF00BF012000F01EF89B
:100F50000028FAD100BF00220221024800F018FC4C
:100F600000BF10BD0004004810B5642000F0C6FBAF
:100F700000BF00220221044800F00AFC00BF4FF429
:100F8000FA6000F0BBFB10BD0004004810B5044639
:100F900024B1002044490870444908704248007850
:100FA000012815D10821424800F03EFC20B18021E3
:100FB0003F4800F039FC48B9142000F09FFB0020A6
:100FC000394908703B4800683B490860002010BD63
:100FD0003548007800283CD13448007890BB012087
:100FE000324908700821324800F01EFC30B98021D7
:100FF0002F4800F019FC08B90320E8E708212C4825
:1010000000F012FC78B944B92A4800682B490968F5
:10101000401ADC2801D20520D9E726480068274974
:1010200008600120D3E78021214800F0FDFB48B98A
:101030004CB92048006821490968401ADC2802D2CE
:101040000620C4E705E01B4800681C490860022030
:10105000BDE71548007828BB0821154800F0E4FBDF
:1010600001280BD18021124800F0DEFB012805D1B8
:101070000D49087000200D490870A8E70D48006868
:101080000D490968401AB0F5FA6F0BD908210848D4
:1010900000F0CAFB20B18021054800F0C5FB08B96B
:1010A000042094E7002092E745000020460000203D
:1010B0000004004814000020480000204C000020DC
:1010C0001FB50121444800F00BFA632240F2AF4102
:1010D000424800F081FF0021404800F09EFF0021BF
:1010E0003E4800F095FF012211463C4800F0ABFF5E
:1010F00000221146102000F073FD0121374800F056
:1011000091FF0121364800F0EBF902A800F045FB01
:101110004FF48070029002208DF80E0000208DF8B0
:101120000C008DF80D0002208DF80F0002A94FF081
:10113000904000F03CFB022208214FF0904000F06C
:101140007CFB77226321274800F046FF00212548D9
:1011500000F063FF0021234800F05AFF00212148DE
:1011600001F09DF800211F4801F08FF800211D4873
:1011700001F09AF800211B4801F08CF806208DF848
:10118000000001208DF8050000208DF806008DF884
:1011900003008DF804008DF801008DF802006A4606
:1011A0000021104800F07BFF002211460D4800F09E
:1011B0001BFF002211460B4800F050FF0022114691
:1011C000084801F03CF80121064801F059F80121D6
:1011D000044800F027FF1FBD01001C000004004070
:1011E0000B001800002C01400649496860F38F315C
:1011F000044A516082080349496862F31C71014A3C
:1012000051607047001002400349496860F30711BC
:10121000014A5160704700000010024003494968CC
:1012200060F30A21014A516070470000001002403B
:101230000349496860F3CD21014A516070470000BD
:1012400000100240012807D10749496D21F0300103
:101250003031054A516505E00349496D21F03001FF
:10126000014A51657047000000100240052827D24E
:10127000DFE800F0030A11181F00134A126861F337
:101280000002114B1A601CE00F4A126861F3104211
:101290000D4B1A6015E00C4A126861F318620A4B94
:1012A0001A600EE0084A126A61F30002064B1A62E5
:1012B00007E0054A526A61F30002034B5A6200E0FC
:1012C00000BF00BF70470000001002402DE9F04F42
:1012D00085B004460025AA46AB460026A946002054
:1012E000049003900290019000F0E4F900900098BF
:1012F00020B1012812D0022875D112E05648406D65
:10130000C0F3402038B15448006BC0F3406010B1C6
:101310005248206001E05248206067E05148206058
:1013200064E04D484068C0F3004B4B48C06AC00FB2
:1013300030BB49484068C0F3834547484068C0F324
:10134000417ABAF1000F01D10F2D04D14FEA0A10F2
:10135000401C054400E0AD1CBBF1000F03D1424826
:10136000684320603DE03C484068C0F3404018B10D
:101370003E486843206034E03A486843206030E0EB
:101380003548C06AC0F3031003903348C06AC0F305
:10139000082002903048C06A00F007000190BBF1BD
:1013A000000F02D13048049009E02B484068C0F398
:1013B000404010B12D48049001E02A4804900121DA
:1013C000019801FA00F0039900FB01FC02990498CE
:1013D000A0FB01700146624600233846FEF7EAFE94
:1013E000206003E0FFE71E48206000BF00BF1A48EE
:1013F0004068C0F303161E4810F80690206820FAD3
:1014000009F0606014484068C0F30226194810F8DB
:101410000690606820FA09F0E0600F484068C0F369
:10142000C226154810F80690606820FA09F0A060FE
:1014300009484068C0F3007607484068C0F381302F
:1014400040EA86060D4810F80690A068B0FBF9F057
:10145000206105B0BDE8F08F00100240006CDC0296
:1014600000127A0000366E0100093D00001BB70033
:1014700090240008A0240008A8240008B024000834
:1014800010B501460020094B03EB1142126801F030
:101490001F040123A3401A4001F01F040123A340AD
:1014A0009A4200D000E0012010BD00000010024070
:1014B00030B50024002500E0641C1120FFF7E0FF98
:1014C000012802D0B4F5405FF6D31120FFF7D8FF12
:1014D000012801D0002500E00125284630BD00008C
:1014E00010B501290DD10E4B03EB1042126800F02C
:1014F0001F040123A3401A43094C04EB10431A6054
:101500000CE0074B03EB1042126800F01F040123AC
:10151000A3409A43024C04EB10431A6010BD000034
:101520000010024030B502460020002372B9354C4D
:10153000646824F48034334D6C6033482C46246B4B
:1015400024F0007404F100742C6319E02D4C6468DD
:1015500024F4803404F580342A4D6C60012A06D1CD
:101560002A482C46646824F400346C6008E028485B
:10157000244C646824F4003404F50034214D6C607C
:10158000244CA04204D9244CA04201D2002326E0DE
:10159000224CA04204D9224CA04201D201231EE0D9
:1015A000204CA04204D9204CA04201D2022316E0D4
:1015B0001D4CA04204D91D4CA04201D203230EE0D1
:1015C0001B4CA04204D91B4CA04201D2042306E0CC
:1015D000184CA04203D9184CA04200D20523094C54
:1015E000646861F39544074D6C600D09054C6468AF
:1015F00065F35E74034D6C602C46E46A63F31A6411
:10160000EC6230BD0010024000093D0000366E0162
:10161000001BB70060823B00404B4C0080584F00DD
:10162000105E5F0094357700101B7F0020BCBE0069
:10163000286BEE0030D73D01D8E9DC011648006880
:1016400020F00100401C1449086000BF12480068E7
:10165000C0F340000028F9D00F48406820F0030094
:101660000D49486000BF0C484068C0F38100002865
:10167000F9D1094800680949084007490860002075
:10168000486041F61070C8624FF4801008634FF450
:101690001F0088607047000000100240FFFFF2FE4C
:1016A0000349496860F30101014A51607047000035
:1016B0000010024002484068C0F3810070470000FB
:1016C0000010024010B5042000F072FC07480068CA
:1016D0000749B0FBF1F007490860084600684FF47D
:1016E0007A7148430449086010BD00005000002092
:1016F00040420F000C0000201000002000212FE0CD
:10170000322808D9184A126832235A434FF0E0238E
:101710005A61323806E0144A126842434FF0E0231F
:101720005A61002000224FF0E0239A611A461269A4
:1017300042F001021A6100BF4FF0E022116901F08E
:1017400001021AB101F48032002AF5D04FF0E022F4
:10175000126922F001024FF0E0231A6100229A611F
:101760000028CDD1704700001000002070B504465D
:101770000D4600BF8021054800F0E3FD0028F9D0A8
:10178000A1B2024800F0D4FD204670BD00380140EF
:101790000AB1816100E0816270474FF6FF7101601C
:1017A00000218171017141710121C171704770B5D2
:1017B0000A4600211488A3B233E003F001046CB39D
:1017C00004684E000325B540AC43046094794D0095
:1017D000AC4005682C430460446801258D40AC434F
:1017E0004460446815798D402C43446084684E0001
:1017F0000325B540AC438460D4794D00AC40856886
:101800002C438460C4684E000325B540AC43C460DB
:1018100054794D00AC40C5682C43C4605B104C1C2F
:10182000A1B2002BC9DC70BD0246002013690B4039
:101830008B4200D000E001207047F0B50023002467
:101840004D07ED0E02FA05F3CD105DB1456A4E0766
:10185000F70E0F26BE40B5434562456A45EA0304CC
:1018600044620AE0056A4E07F70E0F26BE40B543F4
:101870000562056A45EA03040462F0BD70B50546D9
:101880000C4610480078844204D10F480078854205
:1018900000D170BD012C01DB042C00DDF9E7012D26
:1018A00006D104EBC40101EB0410FEF7CBFF02E00C
:1018B0000020FEF7C7FF034804700348057000BF0F
:1018C000E7E700001E0000201F00002010B50446BE
:1018D000012C13D10B48007818B10A480078192858
:1018E00002DD05200749087006480078FEF7AAFFC8
:1018F00004480078401F0349087002E0192001499C
:10190000087010BD1D0000200020014908707047BC
:101910001C00002001200149087070471C000020B5
:1019200000B50748007810B1012806D102E0FFF7A2
:10193000F1FF00BDFFF7E8FFFBE700BFF9E700009C
:101940001C00002000F024FA032000F0ADF94FF451
:10195000E13000F0AFFCFFF7B3FBFFF7B3FEFEF79B
:10196000DFFD00F033FD00F0B3F9FFF7C1FAFFF738
:10197000FBFA06E04FF46172642189480068FEF7C3
:1019800059FE0120FFF702FB0028F3D0FFF7D2FA3F
:1019900000F03AFD06210820FEF732FE40F6025123
:1019A000484340F6FF7190FBF1F000EB40007D49A9
:1019B0000880084600887C4908807A4801887BA016
:1019C000FEF770FC4FF4C870FFF798FE00BF0122CD
:1019D00002217C48FFF7DCFE00BF6420FFF78EFE8B
:1019E00000BF002202217748FFF7D2FE00BF00BFF0
:1019F000012211034FF09040FFF7CAFE00BF00F034
:101A0000CDFACCE00020FFF7C1FA6F490870084614
:101A1000007807283BD2DFE800F03A0418282D3A76
:101A200031006A48007801280ED169480078401CCE
:101A30006749087008460078042801DD0420087012
:101A400063480078FFF742FF21E0604800780128F2
:101A50000AD15F480078401E5D490870084600784A
:101A6000012801DA0120087011E0FFF759FF00F0AA
:101A700095FA0CE001205749087008E053480078B7
:101A8000012803D152480078FFF720FF00BF00BFB4
:101A90004F4801784D480078FFF7F0FE05210820F7
:101AA000FEF7AEFD40F60251484340F6FF7190FB51
:101AB000F1F000EB40003B490880084600883A49B5
:101AC0000988884203DA3748008837490880354852
:101AD000018835480088C830814203DD31480088DC
:101AE0003149088030480288384801782C4800681D
:101AF000FFF720F8012802D10220364908702A4851
:101B000001882AA0FEF7CEFB30490978C1F1010116
:101B1000C8B200F025FA012800D101E02D48007874
:101B20002C49087008460078002838DD00BF0122E3
:101B300002212448FFF72CFE00BF26480078012828
:101B400016DD00BF2448FEF7B1FD0020FFF71EFAA6
:101B50001D49087008460078032805D11F48007801
:101B6000C0F101001D4908701C4800780128E9D027
:101B70004FF49670FFF7C2FD00BF00224FF4805172
:101B80004FF09040FFF704FE00BF00F0EFF800BFF9
:101B90000120FFF7FBF90028FAD100BFFEE731E78B
:101BA0001400002000000020020000206261747414
:101BB0006572795F766F6C743A202564206D560DDE
:101BC0000A00000000040048050000201C0000205E
:101BD000040000200700002045080008060000203F
:101BE0002DE9F0470B4614464FF0000C00BF2C4A7D
:101BF0001268C2F302211D4626460A46C2F10709B1
:101C0000B9F1040F02D94FF0040901E0C2F107094C
:101C1000C84602F10409B9F1070F02D24FF00009DA
:101C200001E0A2F103094F464FF0010909FA08F952
:101C3000A9F1010909EA050909FA07F94FF0010AB2
:101C40000AFA07FAAAF1010A0AEA060A49EA0A099F
:101C5000CC4601466246002904DB15072E0E114DC5
:101C60006E5407E015072F0E0D4D0C3501F00F06D1
:101C7000361FAF5500BF014600290DDB00BF00BF76
:101C800001F01F050122AA404D09AD0005F1E02534
:101C9000C5F8002100BF00BF00BFBDE8F08700000D
:101CA0000CED00E000E400E000BF00F00702064B8E
:101CB00019684FF6FF031940044B0B4343EA022116
:101CC000014B196000BF70470CED00E00000FA0501
:101CD0001CB501212348FFF703FC01212148FFF730
:101CE000FFFB01211F48401CFFF7FAFB6846FFF786
:101CF00054FD01208DF8070000208DF8040001201C
:101D00008DF80600C003009000208DF8050069469C
:101D10004FF09040FFF74BFD0220009069461248BB
:101D2000FFF745FD4FF48050009001208DF805002D
:101D300069464FF09040FFF73AFD00224FF4004112
:101D40004FF09040FFF724FD012202210648FFF7E3
:101D50001FFD00224FF480514FF09040FFF718FD17
:101D60001CBD0000110014000004004810B5002242
:101D70004FF400414FF09040FFF70AFD10BD10B541
:101D80000122D1034FF09040FFF702FD10BD00008B
:101D900010B5FFF753FC40F25310194908600121B8
:101DA0000846FFF763FA00BFFFF782FB0028FBD06D
:101DB00003210120FFF7B6FB01210220FFF756FAAD
:101DC00000BF1920FFF75CFB0128FAD10020FFF7C4
:101DD0001BFA0020FFF72CFA0020FFF71FFA012062
:101DE000FFF730FA0220FFF75BFC00BFFFF762FC51
:101DF0000228FBD10020FFF725FA00F003F810BD00
:101E0000002002402DE9FF5F002400250026A146A6
:101E1000A246A3460020039002900190FFF74AFCDF
:101E20000090009820B1012814D0022874D115E048
:101E30004348406DC0F3402040B14148006BC0F3BF
:101E4000406018B13F484049086002E03F483E49C1
:101E5000086065E03E483C49086061E038484068F9
:101E6000C0F300463648C06AC00F20BB3448406803
:101E7000C0F3834432484068C0F341750DB90F2C5C
:101E800003D12801401C044400E0A41C26B93148B9
:101E900060432D4908603DE029484068C0F3404058
:101EA00020B12D4860432849086033E0284860434A
:101EB000254908602EE02248C06AC0F30310039051
:101EC0001F48C06AC0F3082002901D48C06A00F095
:101ED0000700019016B9DFF87CB009E018484068A7
:101EE000C0F3404010B1DFF870B001E0DFF860B03F
:101EF0000121019801FA00F0039900FB01FC02980E
:101F0000ABFB00700146624600233846FEF752F9EB
:101F10000D49086004E0FFE70C480B49086000BF6A
:101F200000BF07484068C0F303190C4810F809A027
:101F30000548006820FA0AF003490860BDE8FF9FE1
:101F400000100240006CDC025000002000127A00F9
:101F500000366E0100093D00001BB7008024000818
:101F600001460B4800680B4A904201D90120704796
:101F700001290AD106480068074A1268801A47F208
:101F80003052904201D90120F1E70020EFE7000034
:101F90001400002000DD6D001800002002480068D9
:101FA000024908607047000014000020180000205B
:101FB000042808D14FF0E021096941F004014FF0F5
:101FC000E022116107E04FF0E021096921F00401EE
:101FD0004FF0E02211617047C1628262436923F0D1
:101FE00001035B1C436170470B4633B1022B06D0E3
:101FF000042B06D0062B08D105E0426306E082637D
:1020000004E0C26302E0026400E000BF00BF70476A
:10201000026861F3092202607047026861F30612E8
:1020200002607047026861F3000202607047CA43B1
:10203000026170470246002013690B400BB101207A
:1020400000E000207047012A03D1C3680B43C3603E
:1020500003E012B9C3688B43C360704710B50B46E9
:1020600033B1022B09D0042B0CD0062B14D10EE077
:10207000846962F3C30484610FE0846962F3CB2452
:1020800084610AE0C46962F3C304C46105E0C46901
:1020900062F3CB24C46100E000BF00BF10BD2DE996
:1020A000F04100250026002701F108035C1C92F88E
:1020B00001C00CFA03FC1FFA8CF592F802C00CFA6E
:1020C00004FC1FFA8CF6D0F804C04FF0010808FA9F
:1020D00004F82CEA080CC0F804C0D0F804C04CEA9C
:1020E000060CC0F804C0D0F804C04FF0010808FA8C
:1020F00003F82CEA080CC0F804C0D0F804C04CEA7D
:10210000050CC0F804C00F4637B1022F0DD0042FC4
:1021100014D0062F24D11AE092F80080D0F818C00D
:1021200068F3061CC0F818C01BE092F80080D0F8D5
:1021300018C068F30E3CC0F818C012E092F8008096
:10214000D0F81CC068F3061CC0F81CC009E092F867
:102150000080D0F81CC068F30E3CC0F81CC000E042
:1021600000BF00BF4FF0010C0CEB41034FF0030C1C
:102170000CEB410492F803C00CFA03FC1FFA8CF537
:1021800092F804C00CFA04FC1FFA8CF64FF0010818
:1021900008FA04F8D0F820C02CEA080CC0F820C0D7
:1021A000D0F820C04CEA060CC0F820C04FF0010C5B
:1021B0000CFA03FCD0F8208028EA0C08C0F8208034
:1021C000D0F820C04CEA050CC0F820C04B004FF0FE
:1021D000020C0CEB410492F805C04FEA41080CFADE
:1021E00008FC1FFA8CF592F806C04FF0020808EBC5
:1021F00041080CFA08FC1FFA8CF64FF0010808FAA7
:1022000004F8D0F820C02CEA080CC0F820C0D0F8A0
:1022100020C04CEA060CC0F820C04FF0010808FAB4
:1022200003F8D0F820C02CEA080CC0F820C0D0F881
:1022300020C04CEA050CC0F820C0BDE8F08110B504
:102240000B4633B1022B09D0042B0CD0062B14D132
:102250000EE0846962F3820484610FE0846962F3B2
:102260008A2484610AE0C46962F38204C46105E0DF
:10227000C46962F38A24C46100E000BF00BF10BDDE
:10228000426C61F3CF3242647047026861F3C71257
:1022900002607047426861F3061242607047026B49
:1022A00061F3070202637047826861F3C7128260BC
:1022B000704700001CB5044601211848FFF710F9CB
:1022C00001211748FFF70CF96846FFF766FA01206D
:1022D0008DF8070000208DF8040002208DF806001C
:1022E0000002009000208DF8050069464FF09040F4
:1022F000FFF75DFA01220921C806FFF79EFA0023C5
:102300001A462146074800F025F80121054800F04B
:1023100057F80121034800F00FF81CBD0E0018000B
:1023200011001400003801400146486880B270472F
:10233000C1F3080242607047C26861F34D32C26067
:10234000704702461068084008B10120704700201D
:10235000FCE700002DE9F04385B004460F469046A7
:1023600099466846FEF7B2FF1448844201D1029EA6
:1023700000E0039E06EB86004000B0FBF7F50A2064
:10238000B5FBF0F100FB1150052803D20A20B5FB84
:10239000F0F503E00A20B5FBF0F0451CA06865F3FA
:1023A0000F00A060E06868F30C30E060206969F31A
:1023B0000D30206105B0BDE8F08300000038014019
:1023C000C26861F3C302C260704700001CB50121FE
:1023D0000B48FFF785F86846FFF7DFF9702000909B
:1023E00000208DF804008DF8050001208DF806000E
:1023F0008DF8070069460348FFF7D9F91CBD0000B6
:10240000120014000004004810B500BF0122102182
:102410001A48FFF7BDF900BF00BF0022402117484E
:10242000FFF7B6F900BF00BF002220211348FFF7D5
:10243000AFF900BF0220FFF761F9642414E000BF88
:10244000002210210D48FFF7A3F900BF0220FFF77B
:1024500055F900BF012210210848FFF799F900BF84
:102460000220FFF74BF9641E002CE8DC00BF0122BC
:1024700040210248FFF78CF900BF10BD000400485E
:102480000000000000000000010203040607080924
:102490000000000000000000010203040607080914
:1024A0000000000001020304000000000102030418
:1024B00002040608020C0810D824000800000020BE
:1024C00054000000080100082C25000854000020DA
:1024D0006406000024010008000000000100000064
:1024E00000000000000000000000000000000000EC
:1024F00000000000001900000000000000000000C3
:1025000000000000000000000000000000000000CB
:1025100000000000000000000000000000010000BA
:0C252000000000000000000000127A0023
:04000005080000CD22
:00000001FF
